{
  "_format": "hh-sol-artifact-1",
  "contractName": "PrivaSeal",
  "sourceName": "contracts/PrivaSeal.sol",
  "abi": [
    {
      "inputs": [],
      "stateMutability": "nonpayable",
      "type": "constructor"
    },
    {
      "anonymous": false,
      "inputs": [
        {
          "indexed": true,
          "internalType": "address",
          "name": "owner",
          "type": "address"
        },
        {
          "indexed": true,
          "internalType": "address",
          "name": "spender",
          "type": "address"
        },
        {
          "indexed": false,
          "internalType": "uint256",
          "name": "value",
          "type": "uint256"
        }
      ],
      "name": "Approval",
      "type": "event"
    },
    {
      "anonymous": false,
      "inputs": [],
      "name": "EIP712DomainChanged",
      "type": "event"
    },
    {
      "anonymous": false,
      "inputs": [
        {
          "indexed": false,
          "internalType": "uint8",
          "name": "version",
          "type": "uint8"
        }
      ],
      "name": "Initialized",
      "type": "event"
    },
    {
      "anonymous": false,
      "inputs": [
        {
          "indexed": false,
          "internalType": "address",
          "name": "account",
          "type": "address"
        }
      ],
      "name": "Paused",
      "type": "event"
    },
    {
      "anonymous": false,
      "inputs": [
        {
          "indexed": true,
          "internalType": "bytes32",
          "name": "role",
          "type": "bytes32"
        },
        {
          "indexed": true,
          "internalType": "bytes32",
          "name": "previousAdminRole",
          "type": "bytes32"
        },
        {
          "indexed": true,
          "internalType": "bytes32",
          "name": "newAdminRole",
          "type": "bytes32"
        }
      ],
      "name": "RoleAdminChanged",
      "type": "event"
    },
    {
      "anonymous": false,
      "inputs": [
        {
          "indexed": true,
          "internalType": "bytes32",
          "name": "role",
          "type": "bytes32"
        },
        {
          "indexed": true,
          "internalType": "address",
          "name": "account",
          "type": "address"
        },
        {
          "indexed": true,
          "internalType": "address",
          "name": "sender",
          "type": "address"
        }
      ],
      "name": "RoleGranted",
      "type": "event"
    },
    {
      "anonymous": false,
      "inputs": [
        {
          "indexed": true,
          "internalType": "bytes32",
          "name": "role",
          "type": "bytes32"
        },
        {
          "indexed": true,
          "internalType": "address",
          "name": "account",
          "type": "address"
        },
        {
          "indexed": true,
          "internalType": "address",
          "name": "sender",
          "type": "address"
        }
      ],
      "name": "RoleRevoked",
      "type": "event"
    },
    {
      "anonymous": false,
      "inputs": [
        {
          "indexed": false,
          "internalType": "uint256",
          "name": "termId",
          "type": "uint256"
        },
        {
          "indexed": false,
          "internalType": "string",
          "name": "termUrl",
          "type": "string"
        },
        {
          "indexed": false,
          "internalType": "address",
          "name": "termInitiator",
          "type": "address"
        },
        {
          "indexed": false,
          "internalType": "address",
          "name": "termAccepter",
          "type": "address"
        }
      ],
      "name": "TermAccepted",
      "type": "event"
    },
    {
      "anonymous": false,
      "inputs": [
        {
          "indexed": false,
          "internalType": "uint256",
          "name": "termId",
          "type": "uint256"
        },
        {
          "indexed": false,
          "internalType": "string",
          "name": "termUrl",
          "type": "string"
        },
        {
          "indexed": false,
          "internalType": "address",
          "name": "termInitiator",
          "type": "address"
        },
        {
          "indexed": false,
          "internalType": "address",
          "name": "termRejecter",
          "type": "address"
        }
      ],
      "name": "TermRejected",
      "type": "event"
    },
    {
      "anonymous": false,
      "inputs": [
        {
          "indexed": false,
          "internalType": "uint256",
          "name": "termId",
          "type": "uint256"
        },
        {
          "indexed": false,
          "internalType": "string",
          "name": "termUrl",
          "type": "string"
        },
        {
          "indexed": false,
          "internalType": "address",
          "name": "termInitiator",
          "type": "address"
        },
        {
          "indexed": false,
          "internalType": "address",
          "name": "termRevoker",
          "type": "address"
        }
      ],
      "name": "TermRevoked",
      "type": "event"
    },
    {
      "anonymous": false,
      "inputs": [
        {
          "indexed": true,
          "internalType": "address",
          "name": "from",
          "type": "address"
        },
        {
          "indexed": true,
          "internalType": "address",
          "name": "to",
          "type": "address"
        },
        {
          "indexed": false,
          "internalType": "uint256",
          "name": "value",
          "type": "uint256"
        }
      ],
      "name": "Transfer",
      "type": "event"
    },
    {
      "anonymous": false,
      "inputs": [
        {
          "indexed": false,
          "internalType": "address",
          "name": "account",
          "type": "address"
        }
      ],
      "name": "Unpaused",
      "type": "event"
    },
    {
      "inputs": [],
      "name": "DEFAULT_ADMIN_ROLE",
      "outputs": [
        {
          "internalType": "bytes32",
          "name": "",
          "type": "bytes32"
        }
      ],
      "stateMutability": "view",
      "type": "function"
    },
    {
      "inputs": [],
      "name": "DOMAIN_SEPARATOR",
      "outputs": [
        {
          "internalType": "bytes32",
          "name": "",
          "type": "bytes32"
        }
      ],
      "stateMutability": "view",
      "type": "function"
    },
    {
      "inputs": [],
      "name": "MINTER_ROLE",
      "outputs": [
        {
          "internalType": "bytes32",
          "name": "",
          "type": "bytes32"
        }
      ],
      "stateMutability": "view",
      "type": "function"
    },
    {
      "inputs": [],
      "name": "PAUSER_ROLE",
      "outputs": [
        {
          "internalType": "bytes32",
          "name": "",
          "type": "bytes32"
        }
      ],
      "stateMutability": "view",
      "type": "function"
    },
    {
      "inputs": [
        {
          "internalType": "uint256",
          "name": "_termId",
          "type": "uint256"
        }
      ],
      "name": "acceptEscrowAgrrement",
      "outputs": [],
      "stateMutability": "nonpayable",
      "type": "function"
    },
    {
      "inputs": [
        {
          "internalType": "uint256",
          "name": "_termId",
          "type": "uint256"
        },
        {
          "internalType": "uint64",
          "name": "_deadline",
          "type": "uint64"
        }
      ],
      "name": "acceptTerm",
      "outputs": [],
      "stateMutability": "nonpayable",
      "type": "function"
    },
    {
      "inputs": [
        {
          "internalType": "uint256",
          "name": "_termId",
          "type": "uint256"
        }
      ],
      "name": "acceptTokenSpendingAggrement",
      "outputs": [],
      "stateMutability": "nonpayable",
      "type": "function"
    },
    {
      "inputs": [
        {
          "internalType": "address",
          "name": "owner",
          "type": "address"
        },
        {
          "internalType": "address",
          "name": "spender",
          "type": "address"
        }
      ],
      "name": "allowance",
      "outputs": [
        {
          "internalType": "uint256",
          "name": "",
          "type": "uint256"
        }
      ],
      "stateMutability": "view",
      "type": "function"
    },
    {
      "inputs": [
        {
          "internalType": "address",
          "name": "spender",
          "type": "address"
        },
        {
          "internalType": "uint256",
          "name": "amount",
          "type": "uint256"
        }
      ],
      "name": "approve",
      "outputs": [
        {
          "internalType": "bool",
          "name": "",
          "type": "bool"
        }
      ],
      "stateMutability": "nonpayable",
      "type": "function"
    },
    {
      "inputs": [
        {
          "internalType": "address",
          "name": "account",
          "type": "address"
        }
      ],
      "name": "balanceOf",
      "outputs": [
        {
          "internalType": "uint256",
          "name": "",
          "type": "uint256"
        }
      ],
      "stateMutability": "view",
      "type": "function"
    },
    {
      "inputs": [
        {
          "internalType": "uint256",
          "name": "amount",
          "type": "uint256"
        }
      ],
      "name": "burn",
      "outputs": [],
      "stateMutability": "nonpayable",
      "type": "function"
    },
    {
      "inputs": [
        {
          "internalType": "address",
          "name": "account",
          "type": "address"
        },
        {
          "internalType": "uint256",
          "name": "amount",
          "type": "uint256"
        }
      ],
      "name": "burnFrom",
      "outputs": [],
      "stateMutability": "nonpayable",
      "type": "function"
    },
    {
      "inputs": [
        {
          "internalType": "address",
          "name": "",
          "type": "address"
        }
      ],
      "name": "contractTerm",
      "outputs": [
        {
          "internalType": "uint256",
          "name": "",
          "type": "uint256"
        }
      ],
      "stateMutability": "view",
      "type": "function"
    },
    {
      "inputs": [
        {
          "internalType": "uint256",
          "name": "_termId",
          "type": "uint256"
        },
        {
          "internalType": "address",
          "name": "_recipientAddress",
          "type": "address"
        },
        {
          "internalType": "string",
          "name": "_website",
          "type": "string"
        },
        {
          "internalType": "bool",
          "name": "_updatable",
          "type": "bool"
        },
        {
          "internalType": "bool",
          "name": "_revocable",
          "type": "bool"
        },
        {
          "internalType": "string",
          "name": "_termsUrl",
          "type": "string"
        },
        {
          "internalType": "uint256",
          "name": "_lockAmount",
          "type": "uint256"
        },
        {
          "internalType": "uint256",
          "name": "_releaseTime",
          "type": "uint256"
        }
      ],
      "name": "createEscrowAggrement",
      "outputs": [],
      "stateMutability": "payable",
      "type": "function"
    },
    {
      "inputs": [
        {
          "internalType": "uint256",
          "name": "_termId",
          "type": "uint256"
        },
        {
          "internalType": "address",
          "name": "_contractAddress",
          "type": "address"
        },
        {
          "internalType": "string",
          "name": "_website",
          "type": "string"
        },
        {
          "internalType": "bool",
          "name": "_updatable",
          "type": "bool"
        },
        {
          "internalType": "bool",
          "name": "_revocable",
          "type": "bool"
        },
        {
          "internalType": "string",
          "name": "_termsUrl",
          "type": "string"
        },
        {
          "internalType": "bool",
          "name": "_isPrivate",
          "type": "bool"
        },
        {
          "internalType": "address[]",
          "name": "_recipients",
          "type": "address[]"
        }
      ],
      "name": "createTerm",
      "outputs": [],
      "stateMutability": "nonpayable",
      "type": "function"
    },
    {
      "inputs": [
        {
          "internalType": "uint256",
          "name": "_termId",
          "type": "uint256"
        },
        {
          "internalType": "address",
          "name": "_spenderAddress",
          "type": "address"
        },
        {
          "internalType": "string",
          "name": "_website",
          "type": "string"
        },
        {
          "internalType": "bool",
          "name": "_updatable",
          "type": "bool"
        },
        {
          "internalType": "bool",
          "name": "_revocable",
          "type": "bool"
        },
        {
          "internalType": "string",
          "name": "_termsUrl",
          "type": "string"
        },
        {
          "internalType": "bool",
          "name": "_isPrivate",
          "type": "bool"
        },
        {
          "internalType": "address[]",
          "name": "_recipients",
          "type": "address[]"
        },
        {
          "internalType": "uint256",
          "name": "_approvalAmount",
          "type": "uint256"
        },
        {
          "internalType": "address",
          "name": "_approvalTokenAddress",
          "type": "address"
        },
        {
          "internalType": "uint64",
          "name": "_deadline",
          "type": "uint64"
        }
      ],
      "name": "createTokenSpendingAggrement",
      "outputs": [],
      "stateMutability": "nonpayable",
      "type": "function"
    },
    {
      "inputs": [],
      "name": "decimals",
      "outputs": [
        {
          "internalType": "uint8",
          "name": "",
          "type": "uint8"
        }
      ],
      "stateMutability": "pure",
      "type": "function"
    },
    {
      "inputs": [
        {
          "internalType": "address",
          "name": "spender",
          "type": "address"
        },
        {
          "internalType": "uint256",
          "name": "subtractedValue",
          "type": "uint256"
        }
      ],
      "name": "decreaseAllowance",
      "outputs": [
        {
          "internalType": "bool",
          "name": "",
          "type": "bool"
        }
      ],
      "stateMutability": "nonpayable",
      "type": "function"
    },
    {
      "inputs": [],
      "name": "eas",
      "outputs": [
        {
          "internalType": "contract IEAS",
          "name": "",
          "type": "address"
        }
      ],
      "stateMutability": "view",
      "type": "function"
    },
    {
      "inputs": [],
      "name": "easSchemaRegistry",
      "outputs": [
        {
          "internalType": "contract ISchemaRegistry",
          "name": "",
          "type": "address"
        }
      ],
      "stateMutability": "view",
      "type": "function"
    },
    {
      "inputs": [],
      "name": "eip712Domain",
      "outputs": [
        {
          "internalType": "bytes1",
          "name": "fields",
          "type": "bytes1"
        },
        {
          "internalType": "string",
          "name": "name",
          "type": "string"
        },
        {
          "internalType": "string",
          "name": "version",
          "type": "string"
        },
        {
          "internalType": "uint256",
          "name": "chainId",
          "type": "uint256"
        },
        {
          "internalType": "address",
          "name": "verifyingContract",
          "type": "address"
        },
        {
          "internalType": "bytes32",
          "name": "salt",
          "type": "bytes32"
        },
        {
          "internalType": "uint256[]",
          "name": "extensions",
          "type": "uint256[]"
        }
      ],
      "stateMutability": "view",
      "type": "function"
    },
    {
      "inputs": [
        {
          "internalType": "uint256",
          "name": "",
          "type": "uint256"
        }
      ],
      "name": "escrowTermInfos",
      "outputs": [
        {
          "internalType": "uint256",
          "name": "lockedAmount",
          "type": "uint256"
        },
        {
          "internalType": "uint256",
          "name": "releaseTime",
          "type": "uint256"
        },
        {
          "internalType": "address",
          "name": "recipientAddress",
          "type": "address"
        }
      ],
      "stateMutability": "view",
      "type": "function"
    },
    {
      "inputs": [
        {
          "internalType": "uint256",
          "name": "_termId",
          "type": "uint256"
        }
      ],
      "name": "getPrivateTermRecipients",
      "outputs": [
        {
          "internalType": "address[]",
          "name": "",
          "type": "address[]"
        }
      ],
      "stateMutability": "view",
      "type": "function"
    },
    {
      "inputs": [
        {
          "internalType": "bytes32",
          "name": "role",
          "type": "bytes32"
        }
      ],
      "name": "getRoleAdmin",
      "outputs": [
        {
          "internalType": "bytes32",
          "name": "",
          "type": "bytes32"
        }
      ],
      "stateMutability": "view",
      "type": "function"
    },
    {
      "inputs": [
        {
          "internalType": "uint256",
          "name": "_termId",
          "type": "uint256"
        }
      ],
      "name": "getTermInfo",
      "outputs": [
        {
          "internalType": "address",
          "name": "contractAddress",
          "type": "address"
        },
        {
          "internalType": "address",
          "name": "owner",
          "type": "address"
        },
        {
          "internalType": "string",
          "name": "website",
          "type": "string"
        },
        {
          "internalType": "bool",
          "name": "updatable",
          "type": "bool"
        },
        {
          "internalType": "bool",
          "name": "revocable",
          "type": "bool"
        },
        {
          "internalType": "string",
          "name": "termsUrl",
          "type": "string"
        },
        {
          "internalType": "bytes32",
          "name": "easSchemaId",
          "type": "bytes32"
        },
        {
          "internalType": "uint256",
          "name": "createdOn",
          "type": "uint256"
        },
        {
          "internalType": "uint256",
          "name": "updatedOn",
          "type": "uint256"
        },
        {
          "internalType": "bytes32[]",
          "name": "pastSchemaIds",
          "type": "bytes32[]"
        },
        {
          "internalType": "string[]",
          "name": "pastTermsUrl",
          "type": "string[]"
        },
        {
          "internalType": "enum PrivaSeal.TermType",
          "name": "termType",
          "type": "uint8"
        }
      ],
      "stateMutability": "view",
      "type": "function"
    },
    {
      "inputs": [
        {
          "internalType": "address",
          "name": "user",
          "type": "address"
        }
      ],
      "name": "getUserAcceptedTerms",
      "outputs": [
        {
          "internalType": "uint256[]",
          "name": "",
          "type": "uint256[]"
        }
      ],
      "stateMutability": "view",
      "type": "function"
    },
    {
      "inputs": [
        {
          "internalType": "address",
          "name": "user",
          "type": "address"
        }
      ],
      "name": "getUserCreatedTerms",
      "outputs": [
        {
          "internalType": "uint256[]",
          "name": "",
          "type": "uint256[]"
        }
      ],
      "stateMutability": "view",
      "type": "function"
    },
    {
      "inputs": [
        {
          "internalType": "address",
          "name": "user",
          "type": "address"
        }
      ],
      "name": "getUserPrivateTerms",
      "outputs": [
        {
          "internalType": "uint256[]",
          "name": "",
          "type": "uint256[]"
        }
      ],
      "stateMutability": "view",
      "type": "function"
    },
    {
      "inputs": [
        {
          "internalType": "address",
          "name": "user",
          "type": "address"
        }
      ],
      "name": "getUserRejectedTerms",
      "outputs": [
        {
          "internalType": "uint256[]",
          "name": "",
          "type": "uint256[]"
        }
      ],
      "stateMutability": "view",
      "type": "function"
    },
    {
      "inputs": [
        {
          "internalType": "address",
          "name": "user",
          "type": "address"
        }
      ],
      "name": "getUserRevokedTerms",
      "outputs": [
        {
          "internalType": "uint256[]",
          "name": "",
          "type": "uint256[]"
        }
      ],
      "stateMutability": "view",
      "type": "function"
    },
    {
      "inputs": [
        {
          "internalType": "address",
          "name": "_user",
          "type": "address"
        },
        {
          "internalType": "uint256",
          "name": "_termId",
          "type": "uint256"
        }
      ],
      "name": "getUserTermState",
      "outputs": [
        {
          "components": [
            {
              "internalType": "enum PrivaSeal.TermStatus",
              "name": "status",
              "type": "uint8"
            },
            {
              "internalType": "uint64",
              "name": "deadline",
              "type": "uint64"
            },
            {
              "internalType": "bytes32",
              "name": "attestId",
              "type": "bytes32"
            },
            {
              "internalType": "uint256",
              "name": "revokedOn",
              "type": "uint256"
            },
            {
              "internalType": "uint256",
              "name": "allowance",
              "type": "uint256"
            }
          ],
          "internalType": "struct PrivaSeal.TermState",
          "name": "",
          "type": "tuple"
        }
      ],
      "stateMutability": "view",
      "type": "function"
    },
    {
      "inputs": [
        {
          "internalType": "bytes32",
          "name": "role",
          "type": "bytes32"
        },
        {
          "internalType": "address",
          "name": "account",
          "type": "address"
        }
      ],
      "name": "grantRole",
      "outputs": [],
      "stateMutability": "nonpayable",
      "type": "function"
    },
    {
      "inputs": [
        {
          "internalType": "bytes32",
          "name": "role",
          "type": "bytes32"
        },
        {
          "internalType": "address",
          "name": "account",
          "type": "address"
        }
      ],
      "name": "hasRole",
      "outputs": [
        {
          "internalType": "bool",
          "name": "",
          "type": "bool"
        }
      ],
      "stateMutability": "view",
      "type": "function"
    },
    {
      "inputs": [
        {
          "internalType": "address",
          "name": "spender",
          "type": "address"
        },
        {
          "internalType": "uint256",
          "name": "addedValue",
          "type": "uint256"
        }
      ],
      "name": "increaseAllowance",
      "outputs": [
        {
          "internalType": "bool",
          "name": "",
          "type": "bool"
        }
      ],
      "stateMutability": "nonpayable",
      "type": "function"
    },
    {
      "inputs": [
        {
          "internalType": "address",
          "name": "_eas",
          "type": "address"
        },
        {
          "internalType": "address",
          "name": "_easSchemaRegistry",
          "type": "address"
        }
      ],
      "name": "initialize",
      "outputs": [],
      "stateMutability": "nonpayable",
      "type": "function"
    },
    {
      "inputs": [
        {
          "internalType": "address",
          "name": "_user",
          "type": "address"
        }
      ],
      "name": "isContractTermAccepted",
      "outputs": [
        {
          "internalType": "bool",
          "name": "",
          "type": "bool"
        }
      ],
      "stateMutability": "view",
      "type": "function"
    },
    {
      "inputs": [
        {
          "internalType": "address",
          "name": "_user",
          "type": "address"
        },
        {
          "internalType": "uint256",
          "name": "_termId",
          "type": "uint256"
        }
      ],
      "name": "isContractTermAcceptedByTermId",
      "outputs": [
        {
          "internalType": "bool",
          "name": "",
          "type": "bool"
        }
      ],
      "stateMutability": "view",
      "type": "function"
    },
    {
      "inputs": [],
      "name": "name",
      "outputs": [
        {
          "internalType": "string",
          "name": "",
          "type": "string"
        }
      ],
      "stateMutability": "view",
      "type": "function"
    },
    {
      "inputs": [],
      "name": "nonRevocableSchemaUID",
      "outputs": [
        {
          "internalType": "bytes32",
          "name": "",
          "type": "bytes32"
        }
      ],
      "stateMutability": "view",
      "type": "function"
    },
    {
      "inputs": [
        {
          "internalType": "address",
          "name": "owner",
          "type": "address"
        }
      ],
      "name": "nonces",
      "outputs": [
        {
          "internalType": "uint256",
          "name": "",
          "type": "uint256"
        }
      ],
      "stateMutability": "view",
      "type": "function"
    },
    {
      "inputs": [],
      "name": "pause",
      "outputs": [],
      "stateMutability": "nonpayable",
      "type": "function"
    },
    {
      "inputs": [],
      "name": "paused",
      "outputs": [
        {
          "internalType": "bool",
          "name": "",
          "type": "bool"
        }
      ],
      "stateMutability": "view",
      "type": "function"
    },
    {
      "inputs": [
        {
          "internalType": "address",
          "name": "owner",
          "type": "address"
        },
        {
          "internalType": "address",
          "name": "spender",
          "type": "address"
        },
        {
          "internalType": "uint256",
          "name": "value",
          "type": "uint256"
        },
        {
          "internalType": "uint256",
          "name": "deadline",
          "type": "uint256"
        },
        {
          "internalType": "uint8",
          "name": "v",
          "type": "uint8"
        },
        {
          "internalType": "bytes32",
          "name": "r",
          "type": "bytes32"
        },
        {
          "internalType": "bytes32",
          "name": "s",
          "type": "bytes32"
        }
      ],
      "name": "permit",
      "outputs": [],
      "stateMutability": "nonpayable",
      "type": "function"
    },
    {
      "inputs": [
        {
          "internalType": "uint256",
          "name": "_termId",
          "type": "uint256"
        }
      ],
      "name": "rejectEscrowAggrement",
      "outputs": [],
      "stateMutability": "nonpayable",
      "type": "function"
    },
    {
      "inputs": [
        {
          "internalType": "uint256",
          "name": "_termId",
          "type": "uint256"
        }
      ],
      "name": "rejectTerm",
      "outputs": [],
      "stateMutability": "nonpayable",
      "type": "function"
    },
    {
      "inputs": [
        {
          "internalType": "uint256",
          "name": "_termId",
          "type": "uint256"
        }
      ],
      "name": "rejectTokenSpendingAggrement",
      "outputs": [],
      "stateMutability": "nonpayable",
      "type": "function"
    },
    {
      "inputs": [
        {
          "internalType": "uint256",
          "name": "_termId",
          "type": "uint256"
        },
        {
          "internalType": "address",
          "name": "_recipient",
          "type": "address"
        }
      ],
      "name": "removeTermRecipient",
      "outputs": [],
      "stateMutability": "nonpayable",
      "type": "function"
    },
    {
      "inputs": [
        {
          "internalType": "bytes32",
          "name": "role",
          "type": "bytes32"
        },
        {
          "internalType": "address",
          "name": "account",
          "type": "address"
        }
      ],
      "name": "renounceRole",
      "outputs": [],
      "stateMutability": "nonpayable",
      "type": "function"
    },
    {
      "inputs": [],
      "name": "revocableSchemaUID",
      "outputs": [
        {
          "internalType": "bytes32",
          "name": "",
          "type": "bytes32"
        }
      ],
      "stateMutability": "view",
      "type": "function"
    },
    {
      "inputs": [
        {
          "internalType": "bytes32",
          "name": "role",
          "type": "bytes32"
        },
        {
          "internalType": "address",
          "name": "account",
          "type": "address"
        }
      ],
      "name": "revokeRole",
      "outputs": [],
      "stateMutability": "nonpayable",
      "type": "function"
    },
    {
      "inputs": [
        {
          "internalType": "uint256",
          "name": "_termId",
          "type": "uint256"
        }
      ],
      "name": "revokeTerm",
      "outputs": [],
      "stateMutability": "nonpayable",
      "type": "function"
    },
    {
      "inputs": [
        {
          "internalType": "bytes4",
          "name": "interfaceId",
          "type": "bytes4"
        }
      ],
      "name": "supportsInterface",
      "outputs": [
        {
          "internalType": "bool",
          "name": "",
          "type": "bool"
        }
      ],
      "stateMutability": "view",
      "type": "function"
    },
    {
      "inputs": [],
      "name": "symbol",
      "outputs": [
        {
          "internalType": "string",
          "name": "",
          "type": "string"
        }
      ],
      "stateMutability": "view",
      "type": "function"
    },
    {
      "inputs": [
        {
          "internalType": "uint256",
          "name": "",
          "type": "uint256"
        }
      ],
      "name": "terms",
      "outputs": [
        {
          "internalType": "address",
          "name": "contractAddress",
          "type": "address"
        },
        {
          "internalType": "address",
          "name": "owner",
          "type": "address"
        },
        {
          "internalType": "string",
          "name": "website",
          "type": "string"
        },
        {
          "internalType": "bool",
          "name": "updatable",
          "type": "bool"
        },
        {
          "internalType": "bool",
          "name": "revocable",
          "type": "bool"
        },
        {
          "internalType": "string",
          "name": "termsUrl",
          "type": "string"
        },
        {
          "internalType": "bytes32",
          "name": "easSchemaId",
          "type": "bytes32"
        },
        {
          "internalType": "uint256",
          "name": "createdOn",
          "type": "uint256"
        },
        {
          "internalType": "uint256",
          "name": "updatedOn",
          "type": "uint256"
        },
        {
          "internalType": "bool",
          "name": "isPrivate",
          "type": "bool"
        },
        {
          "internalType": "enum PrivaSeal.TermType",
          "name": "termType",
          "type": "uint8"
        }
      ],
      "stateMutability": "view",
      "type": "function"
    },
    {
      "inputs": [
        {
          "internalType": "address",
          "name": "",
          "type": "address"
        },
        {
          "internalType": "address",
          "name": "",
          "type": "address"
        }
      ],
      "name": "tokenSpendingTermId",
      "outputs": [
        {
          "internalType": "uint256",
          "name": "",
          "type": "uint256"
        }
      ],
      "stateMutability": "view",
      "type": "function"
    },
    {
      "inputs": [
        {
          "internalType": "uint256",
          "name": "",
          "type": "uint256"
        }
      ],
      "name": "tokenSpendingTermInfos",
      "outputs": [
        {
          "internalType": "uint256",
          "name": "approvalAmount",
          "type": "uint256"
        },
        {
          "internalType": "uint64",
          "name": "deadline",
          "type": "uint64"
        },
        {
          "internalType": "address",
          "name": "spenderAddress",
          "type": "address"
        },
        {
          "internalType": "address",
          "name": "tokenAddress",
          "type": "address"
        }
      ],
      "stateMutability": "view",
      "type": "function"
    },
    {
      "inputs": [],
      "name": "totalSupply",
      "outputs": [
        {
          "internalType": "uint256",
          "name": "",
          "type": "uint256"
        }
      ],
      "stateMutability": "view",
      "type": "function"
    },
    {
      "inputs": [
        {
          "internalType": "address",
          "name": "to",
          "type": "address"
        },
        {
          "internalType": "uint256",
          "name": "amount",
          "type": "uint256"
        }
      ],
      "name": "transfer",
      "outputs": [
        {
          "internalType": "bool",
          "name": "",
          "type": "bool"
        }
      ],
      "stateMutability": "nonpayable",
      "type": "function"
    },
    {
      "inputs": [
        {
          "internalType": "address",
          "name": "from",
          "type": "address"
        },
        {
          "internalType": "address",
          "name": "to",
          "type": "address"
        },
        {
          "internalType": "uint256",
          "name": "amount",
          "type": "uint256"
        }
      ],
      "name": "transferApprovedTokensFrom",
      "outputs": [],
      "stateMutability": "nonpayable",
      "type": "function"
    },
    {
      "inputs": [
        {
          "internalType": "address",
          "name": "from",
          "type": "address"
        },
        {
          "internalType": "address",
          "name": "to",
          "type": "address"
        },
        {
          "internalType": "uint256",
          "name": "amount",
          "type": "uint256"
        }
      ],
      "name": "transferFrom",
      "outputs": [
        {
          "internalType": "bool",
          "name": "",
          "type": "bool"
        }
      ],
      "stateMutability": "nonpayable",
      "type": "function"
    },
    {
      "inputs": [],
      "name": "unpause",
      "outputs": [],
      "stateMutability": "nonpayable",
      "type": "function"
    },
    {
      "inputs": [
        {
          "internalType": "uint256",
          "name": "_termId",
          "type": "uint256"
        },
        {
          "internalType": "bool",
          "name": "_updatable",
          "type": "bool"
        },
        {
          "internalType": "bool",
          "name": "_revocable",
          "type": "bool"
        },
        {
          "internalType": "string",
          "name": "_termsUrl",
          "type": "string"
        }
      ],
      "name": "updateTerm",
      "outputs": [],
      "stateMutability": "nonpayable",
      "type": "function"
    },
    {
      "inputs": [
        {
          "internalType": "address",
          "name": "",
          "type": "address"
        },
        {
          "internalType": "uint256",
          "name": "",
          "type": "uint256"
        }
      ],
      "name": "userTerms",
      "outputs": [
        {
          "internalType": "enum PrivaSeal.TermStatus",
          "name": "status",
          "type": "uint8"
        },
        {
          "internalType": "uint64",
          "name": "deadline",
          "type": "uint64"
        },
        {
          "internalType": "bytes32",
          "name": "attestId",
          "type": "bytes32"
        },
        {
          "internalType": "uint256",
          "name": "revokedOn",
          "type": "uint256"
        },
        {
          "internalType": "uint256",
          "name": "allowance",
          "type": "uint256"
        }
      ],
      "stateMutability": "view",
      "type": "function"
    }
  ],
  "bytecode": "0x60808060405234620000c6576000549060ff8260081c1662000074575060ff8082160362000038575b604051615f299081620000cc8239f35b60ff90811916176000557f7f26b83ff96e1f2b6a682f133852f6798a09c465da95921460cefb3847402498602060405160ff8152a13862000028565b62461bcd60e51b815260206004820152602760248201527f496e697469616c697a61626c653a20636f6e747261637420697320696e697469604482015266616c697a696e6760c81b6064820152608490fd5b600080fdfe608080604052600436101561001357600080fd5b60003560e01c90816301ffc9a71461480f5750806306fdde0314614769578063095ea7b314614743578063100788a51461472457806318160ddd146147065780631f3807021461400357806323b872dd14613fe1578063248a9ca314613fb2578063276f6b4b14613d3d578063293e4a4e14613d025780632f2ff15d14613c61578063313ce567146112535780633644e51514613c3e57806336568abe14613bac57806337badcd414613b245780633950935114613ad25780633cffddb214613a475780633f032276146139215780633f4ba83a1461388d57806342966c6814613870578063485cc95514612f685780635433d54c14612ef057806359f47857146127c15780635c975abb1461279e5780636383ab5d146126aa57806366e5eb0c1461263257806370a08231146125f857806371997a771461259d57806378e0d46f146124d357806379cc6790146124a35780637d81f4f2146124845780637e6509571461242c5780637ecebe00146123f1578063805eb430146123c75780638150864d1461239d5780638456cb591461234357806384b0196e1461223f578063868c4026146121dd578063868ce5b4146121655780639127006b146120ed57806391b2658e1461206157806391d1485414612014578063922c3a8c14611f2a57806395d89b4114611e44578063979c6fe614611c035780639c12fa1c1461193d5780639fba5a471461126f578063a217fddf14611253578063a2b6b73f14611005578063a457c2d714610f5e578063a9059cbb14610f2d578063ad4d4a2e14610cf5578063b84bfef914610b9c578063c0aa0e8a14610a9a578063d505accf146108e0578063d5391393146108a5578063d547741f14610864578063db55f67c146107ab578063dd62ed3e1461075a578063df477b5614610708578063e63ab1e9146106cd578063e79f7d35146106805763f74adff8146102d457600080fd5b3461067b5760208060031936011261067b5760043590816000526101989182825260039060ff826040600020015460081c161561063e573360005261019a93848452604060002082600052845260ff604060002054169261033484614abc565b60018094036106055783949533600052808752604060002084600052875260406000208260ff19825416179055336000528087526040600020846000528752604060002068ffffffffffffffff001981541690553360005286526040600020836000528652426002604060002001553360005261019e86526103ba8360406000206159fb565b6000845b610524575b5050908092506000528084526004604060002001917f88ac213cc4e33f20266b4c9932766947975f3fd15c1d7338090af824b7eb6c3160018060a01b0393846040600020541661041b60405192839233918785615c99565b0390a160005283528160406000200154169081156104d55761043b615945565b81600052603383526040600020548181106104855792600080516020615ed483398151915291600094848652603383528519809101604087205560355401603555604051908152a3005b60405162461bcd60e51b815260048101859052602260248201527f45524332303a206275726e20616d6f756e7420657863656564732062616c616e604482015261636560f01b6064820152608490fd5b60405162461bcd60e51b815260048101849052602160248201527f45524332303a206275726e2066726f6d20746865207a65726f206164647265736044820152607360f81b6064820152608490fd5b3360005261019b8088526040600020548210156105ff578461054a8360406000206159e3565b905490851b1c14610565575061055f90615a21565b846103be565b9293945090336000528287526040600020906040600020549060001982019182116105e95761059a6105b1926105ca946159e3565b9054911b1c923360005284895260406000206159e3565b819391549060031b600019811b9283911b169119161790565b90553360005284526105df6040600020615c19565b90829138806103c3565b634e487b7160e01b600052601160045260246000fd5b506103c3565b60405162461bcd60e51b815260048101869052601160248201527015195c9b481b9bdd081858d8d95c1d1959607a1b6044820152606490fd5b60405162461bcd60e51b81526004810184905260156024820152745465726d206973206e6f74207265766f6361626c6560581b6044820152606490fd5b600080fd5b3461067b57602036600319011261067b576004356000526101a260205260606040600020805490600181015490600260018060a01b03910154169060405192835260208301526040820152f35b3461067b57600036600319011261067b5760206040517f65d7a28e3265b37a6474929f336521b332c1681b933f6cb9f3376673440d862a8152f35b3461067b57604036600319011261067b576107216148aa565b6107296148c0565b9060018060a01b038091166000526101a3602052604060002091166000526020526020604060002054604051908152f35b3461067b57604036600319011261067b576107736148aa565b61077b6148c0565b9060018060a01b038091166000526034602052604060002091166000526020526020604060002054604051908152f35b3461067b5760208060031936011261067b5760043560005261019f8152604060002060405190818382549182815201908192600052846000209060005b868282106108475786866107fe8288038361495e565b604051928392818401908285525180915260408401929160005b82811061082757505050500390f35b83516001600160a01b031685528695509381019392810192600101610818565b83546001600160a01b0316855290930192600192830192016107e8565b3461067b57604036600319011261067b576108a36004356108836148c0565b908060005260fb60205261089e600160406000200154614f42565b61504d565b005b3461067b57600036600319011261067b5760206040517f9f2df0fed2c77648de5860a4cc508cd0818c85b8b8a1ab4ceeef8d981c8956a68152f35b3461067b5760e036600319011261067b576108f96148aa565b6109016148c0565b6044359060843560643560ff8216820361067b57804211610a555760018060a01b039081861692836000526101616020526040600020908154916001830190556040519260208401927f6e71edae12b1b97f4d1f60370fef10105fa2faae0126114a169c64845d6126c98452866040860152858816606086015288608086015260a085015260c084015260c0835260e08301918383106001600160401b03841117610a3f576109eb936109e3936040525190206109bc615775565b906040519161190160f01b83526002830152602282015260c43591604260a43592206156e6565b9190916155e2565b16036109fa576108a392615229565b60405162461bcd60e51b815260206004820152601e60248201527f45524332305065726d69743a20696e76616c6964207369676e617475726500006044820152606490fd5b634e487b7160e01b600052604160045260246000fd5b60405162461bcd60e51b815260206004820152601d60248201527f45524332305065726d69743a206578706972656420646561646c696e650000006044820152606490fd5b3461067b57602036600319011261067b576004356000526101986020526020604060002060018060a01b0390818154169160018201541660ff604051610aee81610ae78160028801614c92565b038261495e565b600384015493604051610b0881610ae78160048601614c92565b610b6f60058301549660068401549286610b4c600a600788015497015497828960081c169a6040519e8f9e8f908152015260408d61016091829101528d0190614885565b92818116151560608d015260081c16151560808b015289820360a08b0152614885565b9560c088015260e0870152610100860152161515610120840152610b9281614abc565b6101408301520390f35b3461067b5760208060031936011261067b576004353360005261019a8083526040600020826000528352610be160ff60406000205416610bdb81614abc565b15615c43565b81600052610198808452610c0e600360ff600a6040600020015460081c16610c0881614abc565b14615e0b565b8260005260008080806101a280895260018060a01b0396610c39338960026040872001541614615e57565b338352895260408220888352895260408220600260ff1982541617905533825261019d8952610c6b88604084206159fb565b87825285895286600160408420015416908952604082205490828215610cec575bf115610ce0577f688b4b80f8059abfb59134901d9d0b80f3d989e0d42ed1d937cbc5ec01a80cdc938360005252610cdb6004604060002001916040600020541692604051938493339285615c99565b0390a1005b6040513d6000823e3d90fd5b506108fc610c8c565b3461067b57608036600319011261067b57600435602435801515810361067b57604435801515810361067b576001600160401b039060643582811161067b57610d4290369060040161497f565b8460005261019893602093858552610dc560018060a01b0392610d6d84604060002054161515615a67565b88600052878752610d8860ff60036040600020015416615aa9565b88600052878752610da56001948560406000200154163314615af5565b8860005287875260036040600020019060ff801983541691151516179055565b6040600020600301805461ff00191685151560081b61ff001617905560096040600020016004604060002001908054600160401b811015610a3f57610e0e9185820181556159e3565b919091610f1757610e1e91615b41565b866000528585526004604060002001928051918211610a3f57610e4b82610e458654614b10565b86615909565b8590601f8311600114610eb457928293918392600094610ea9575b50501b916000199060031b1c19161790555b15610e9f5761019654925b6000525260056040600020015542600760406000200155600080f35b6101975492610e83565b015192508980610e66565b90601f198316918560005283886000209360005b8a88838310610f005750505010610ee7575b505050811b019055610e78565b015160001960f88460031b161c19169055878080610eda565b868601518855909601959485019487935001610ec8565b634e487b7160e01b600052600060045260246000fd5b3461067b57604036600319011261067b57610f53610f496148aa565b60243590336150c3565b602060405160018152f35b3461067b57604036600319011261067b57610f776148aa565b60243590336000526034602052604060002060018060a01b03821660005260205260406000205491808310610fb257610f5392039033615229565b60405162461bcd60e51b815260206004820152602560248201527f45524332303a2064656372656173656420616c6c6f77616e63652062656c6f77604482015264207a65726f60d81b6064820152608490fd5b3461067b5760208060031936011261067b576004353360005261019a91828152604060002082600052815261104560ff60406000205416610bdb81614abc565b8160005261019890818152611073600260ff600a6040600020015460081c1661106d81614abc565b14615d6e565b60008381526101a1808352604091829020600201549151636eb1769f60e11b8152336004820152306024820152956001600160a01b0395928490889060449082908a165afa968715610ce057600097611222575b506110e36108a397846000528386526040600020541115615dc6565b3360005280845260406000208360005284526040600020600160ff198254161790558184526111586001600160401b036001604060002001541633600052828652604060002085600052865260406000209068ffffffffffffffff0082549160081b169068ffffffffffffffff001916179055565b818452604060002054903360005284526040600020836000528452600360406000200155336000526101a383526040600020908260005283528460016040600020015460401c166000528252806040600020553360005261019b82526111c28160406000206159fb565b806000528282527fd3fd5aa457913e22d82398ec24da316375a85dffb0d201f4c9cd02d20e003e2d6004604060002001856040600020541661120c60405192839233918785615c99565b0390a16000525260016040600020015416615ccf565b96508387813d831161124c575b611239818361495e565b8101031261067b579551956110e36110c7565b503d61122f565b3461067b57600036600319011261067b57602060405160008152f35b3461067b5761010036600319011261067b576112896148c0565b6044356001600160401b03811161067b576112a890369060040161497f565b6112b06149d5565b916112b96149e4565b9160a4356001600160401b03811161067b576112d990369060040161497f565b936112e26149f3565b9360e4356001600160401b03811161067b57611302903690600401614a19565b9560043560005261019860205261132660018060a01b036040600020541615615989565b81156119335761019654915b6040519361133f8561490d565b60008552604051956113508761490d565b6000875260405197611361896148d6565b60018060a01b031688523360208901526040880152151560608701521515608086015260a085015260c08401524260e0840152426101008401526101208301526101408201528115156101608201526001610180820152600435600052610198602052604060002060018060a01b038251166001600160601b0360a01b9081835416178255600182019060018060a01b036020850151169082541617905560408201518051906001600160401b038211610a3f578190611431826114286002870154614b10565b60028701615909565b602090601f83116001146118c1576000926118b6575b50508160011b916000199060031b1c19161760028201555b61149d6003820161148260608501511515829060ff801983541691151516179055565b6080840151815461ff00191690151560081b61ff0016179055565b60a08201518051906001600160401b038211610a3f5781906114cf826114c66004870154614b10565b60048701615909565b602090601f831160011461184457600092611839575b50508160011b916000199060031b1c19161760048201555b60c0820151600582015560e0820151600682015561010082015160078201556101208201518051906001600160401b038211610a3f57600160401b8211610a3f57600883015482600885015580831061180c575b5060200160088301600052602060002060005b8381106117f85750505050610140820151805190600160401b8211610a3f57600983015482600985015580831061177a575b5060200190600983016000526020600020916000905b8282106116975750505050600a6101809101916115dc6101608201511515849060ff801983541691151516179055565b01516115e781614abc565b6115f081614abc565b61ff0082549160081b169061ff0019161790553360005261019c60205261161d60043560406000206159fb565b61162357005b60005b81518110156108a3576116929060043560005261019f602052611660604060002060018060a01b036116588487615a30565b511690615a44565b6001600160a01b036116728285615a30565b51166000526101a060205261168d60043560406000206159fb565b615a21565b611626565b80518051906001600160401b038211610a3f576116be826116b88854614b10565b88615909565b602090601f831160011461170a5792826001949360209386956000926116ff575b5050600019600383901b1c191690841b1787555b019401910190926115ac565b015190508d806116df565b908660005260206000209160005b601f1985168110611762575083602093600196938796938794601f19811610611749575b505050811b0187556116f3565b015160001960f88460031b161c191690558d808061173c565b91926020600181928685015181550194019201611718565b600984016000526020600020908382015b818301811061179b575050611596565b806117a860019254614b10565b806117b5575b500161178b565b601f811183146117cb5750600081555b8a6117ae565b6117e9908260005283601f6020600020920160051c820191016158f2565b600060208120818355556117c5565b600190602084519401938184015501611564565b600884016000526020600020908382015b818301811061182d575050611551565b6000815560010161181d565b0151905086806114e5565b9250600484016000526020600020906000935b601f198416851061189b576001945083601f19811610611882575b505050811b0160048201556114fd565b015160001960f88460031b161c19169055868080611872565b81810151835560209485019460019093019290910190611857565b015190508680611447565b9250600284016000526020600020906000935b601f1984168510611918576001945083601f198116106118ff575b505050811b01600282015561145f565b015160001960f88460031b161c191690558680806118ef565b818101518355602094850194600190930192909101906118d4565b6101975491611332565b3461067b5761194b36614a87565b919060018060a01b0391828116806000526020926101a384526040600020336000528452604060002054948515611ba9578260005261019a938486526040600020876000528652600160ff604060002054166119a681614abc565b03611b665790611a22918460005285875260406000208860005287526119d6896003604060002001541015615dc6565b60008881526101a1808952604091829020600201549151636eb1769f60e11b81526001600160a01b03909316600484015230602484015291938891859190851690829081906044820190565b03915afa928315610ce05787938a91600091611b30575b5090611a46911015615dc6565b8760005282526064816002604060002001541693600060405195869485936323b872dd60e01b85528960048601521660248401528b60448401525af1908115610ce057600091611afa575b5015611abd57600052815260406000209160005252600360406000200180549182039182116105e95755005b60405162461bcd60e51b8152600481018490526015602482015274151bdad95b881d1c985b9cd9995c8819985a5b1959605a1b6044820152606490fd5b90508381813d8311611b29575b611b11818361495e565b8101031261067b5751801515810361067b5786611a91565b503d611b07565b948092508591503d8311611b5f575b611b49818361495e565b8101031261067b57611a46898894519091611a39565b503d611b3f565b6064866040519062461bcd60e51b825280600483015260248201527f546f6b656e207370656e64696e67207465726d206e6f742061636365707465646044820152fd5b60405162461bcd60e51b815260048101869052602c60248201527f4e6f20746f6b656e207370656e64696e67207465726d20666f756e6420666f7260448201526b103a3434b99039b2b73232b960a11b6064820152608490fd5b3461067b57602036600319011261067b57600435600052610198602052604060002060018060a01b0380825416906001830154169160405190611c5482611c4d8160028501614c92565b038361495e565b60038101549060405191611c7683611c6f8160048601614c92565b038461495e565b6005820154906006830154600784015490600885019560405193848560208a549283815201809a60005260206000209260005b818110611e2b575050611cbe9250038661495e565b600987015498611ccd8a614a02565b97611cdb604051998a61495e565b8a8952602089019a8b6009830160005260206000206000915b838310611e065750505050600a015460081c60ff169b6040519b8c5260208c01526101808060408d01528b01611d2991614885565b9060ff8116151560608c015260081c60ff16151560808b015289810360a08b0152611d5391614885565b9360c089015260e08801526101008701528582036101208701525190818152602001929060005b818110611df05750505083820361014085015251808252602082019160208260051b82010193926000915b838310611dc3578680878a611db981614abc565b6101608301520390f35b9091929394602080611de1600193601f198682030187528951614885565b97019301930191939290611da5565b8251855260209485019490920191600101611d7a565b600160208192604051611e1d81610ae78189614c92565b815201920192019190611cf4565b845483526001948501948a945060209093019201611ca9565b3461067b57600036600319011261067b576040516000603754611e6681614b10565b80845290600190818116908115611f035750600114611ea8575b611ea484611e908186038261495e565b604051918291602083526020830190614885565b0390f35b6037600090815292507f42a7b7dd785cd69714a189dffb3fd7d7174edc9ece837694ce50f7078f7c31ae5b828410611eeb575050508101602001611e9082611e80565b80546020858701810191909152909301928101611ed3565b60ff191660208087019190915292151560051b85019092019250611e909150839050611e80565b3461067b57604036600319011261067b57611f436148aa565b60006080604051611f53816148f2565b828152826020820152826040820152826060820152015260018060a01b031660005261019a602052604060002060243560005260205260a06040600020604051611f9c816148f2565b81549160ff831692611fad84614abc565b83835260208301906001600160401b03809160081c1682526001830154916040850192835260806003600286015495606088019687520154950194855260405195611ff781614abc565b865251166020850152516040840152516060830152516080820152f35b3461067b57604036600319011261067b5761202d6148c0565b60043560005260fb60205260406000209060018060a01b0316600052602052602060ff604060002054166040519015158152f35b3461067b5760208060031936011261067b576001600160a01b036120836148aa565b1660005261019d8152604060002090604051808383829554938481520190600052836000209260005b858282106120d7575050506120c39250038361495e565b611ea4604051928284938452830190614adc565b85548452600195860195889550930192016120ac565b3461067b5760208060031936011261067b576001600160a01b0361210f6148aa565b166000526101a08152604060002090604051808383829554938481520190600052836000209260005b8582821061214f575050506120c39250038361495e565b8554845260019586019588955093019201612138565b3461067b5760208060031936011261067b576001600160a01b036121876148aa565b1660005261019b8152604060002090604051808383829554938481520190600052836000209260005b858282106121c7575050506120c39250038361495e565b85548452600195860195889550930192016121b0565b3461067b57602036600319011261067b576004356000526101a160205260806040600020805490600260018201549160018060a01b03918291015416916040519384526001600160401b038116602085015260401c1660408301526060820152f35b3461067b57600036600319011261067b5761012d541580612338575b156122fb5760405161227081610ae781614b4a565b6040519061228182611c4d81614c01565b6040519160208301928084106001600160401b03851117610a3f576122da611ea4926122cc9560405260008352604051958695600f60f81b875260e0602088015260e0870190614885565b908582036040870152614885565b90466060850152306080850152600060a085015283820360c0850152614adc565b60405162461bcd60e51b81526020600482015260156024820152741152540dcc4c8e88155b9a5b9a5d1a585b1a5e9959605a1b6044820152606490fd5b5061012e541561225b565b3461067b57600036600319011261067b5761235c614d27565b612364615945565b600160ff1960975416176097557f62e78cea01bee320cd4e420270b5ea74000d11b0c9f74754ebdbfc544b05a2586020604051338152a1005b3461067b57600036600319011261067b57610194546040516001600160a01b039091168152602090f35b3461067b57600036600319011261067b57610195546040516001600160a01b039091168152602090f35b3461067b57602036600319011261067b576001600160a01b036124126148aa565b166000526101616020526020604060002054604051908152f35b3461067b57604036600319011261067b576001600160a01b0361244d6148aa565b1660005261019a6020526040600020602435600052602052602060ff6040600020541661247981614abc565b600160405191148152f35b3461067b57600036600319011261067b57602061019654604051908152f35b3461067b57604036600319011261067b576108a36124bf6148aa565b602435906124ce82338361532b565b6153c2565b3461067b5760208060031936011261067b577f688b4b80f8059abfb59134901d9d0b80f3d989e0d42ed1d937cbc5ec01a80cdc90610198600435913360005261019a808252604060002084600052825261253860ff60406000205416610bdb81614abc565b33600052815260406000208360005281526040600020600260ff198254161790553360005261019d81526125708360406000206159fb565b82600052526004604060002001610cdb60018060a01b036040600020541692604051938493339285615c99565b3461067b57602036600319011261067b576125b66148aa565b336000526101996020526040600020549060018060a01b031660005261019a602052604060002090600052602052602060ff6040600020541661247981614abc565b3461067b57602036600319011261067b576001600160a01b036126196148aa565b1660005260336020526020604060002054604051908152f35b3461067b5760208060031936011261067b576001600160a01b036126546148aa565b1660005261019c8152604060002090604051808383829554938481520190600052836000209260005b85828210612694575050506120c39250038361495e565b855484526001958601958895509301920161267d565b3461067b5760208060031936011261067b576108a3906004353360005261019a9182815260406000208260005281526126ee60ff60406000205416610bdb81614abc565b8160005261019891828252612716600360ff600a6040600020015460081c16610c0881614abc565b60008181526101a2835260409020600201546001600160a01b03949061273f9086163314615e57565b3360005280835260406000208260005283526040600020600160ff198254161790553360005282526040600020816000528252604060002068ffffffffffffffff001981541690553360005261019b82526111c28160406000206159fb565b3461067b57600036600319011261067b57602060ff609754166040519015158152f35b61010036600319011261067b576127d66148c0565b6044356001600160401b03811161067b576127f590369060040161497f565b906127fe6149d5565b6128066149e4565b60a4356001600160401b03811161067b5761282590369060040161497f565b6004356000908152610198602052604090205461284b906001600160a01b031615615989565b60c4353403612e98578115612e8e5761019654905b6040519261286d8461490d565b600084526040519461287e8661490d565b600086526040519761288f896148d6565b61101089523360208a01526040890152151560608801521515608087015260a086015260c08501524260e0850152426101008501526101208401526101408301526001610160830152600361018083015260043560005261019860205260406000209060018060a01b038351166001600160601b0360a01b8354161782556001820160018060a01b036020850151166001600160601b0360a01b82541617905560408301519283516001600160401b038111610a3f57612956816114286002870154614b10565b6020601f8211600114612e1f578192939495600092612e14575b50508160011b916000199060031b1c19161760028401555b6129c6600384016129ab60608401511515829060ff801983541691151516179055565b6080830151815461ff00191690151560081b61ff0016179055565b60a08101519283516001600160401b038111610a3f576129f6816129ed6004850154614b10565b60048501615909565b6020601f8211600114612da5578192939495600092612d9a575b50508160011b916000199060031b1c19161760048201555b60c0820151600582015560e0820151600682015561010082015160078201556101208201518051906001600160401b038211610a3f57600160401b8211610a3f576008830154826008850155808310612d6d575b5060200160088301600052602060002060005b838110612d595750505050610140820151805190600160401b8211610a3f576009830154826009850155808310612cdb575b5060200190600983016000526020600020916000905b828210612bfe578686610180600a880191612b056101608201511515849060ff801983541691151516179055565b0151612b1081614abc565b612b1981614abc565b61ff0082549160081b169061ff00191617905560405190612b3982614928565b6001825260208201906020368337825115612be85760018060a01b03168091523360005261019c602052612b7360043560406000206159fb565b6004356000526101a260205260c4356040600020556002604060002001906001600160601b0360a01b82541617905560e43560016040600020015560005b81518110156108a357612be39060043560005261019f602052611660604060002060018060a01b036116588487615a30565b612bb1565b634e487b7160e01b600052603260045260246000fd5b80518051906001600160401b038211610a3f57612c1f826116b88854614b10565b602090601f8311600114612c6b579282600194936020938695600092612c60575b5050600019600383901b1c191690841b1787555b01940191019092612ad7565b015190508c80612c40565b908660005260206000209160005b601f1985168110612cc3575083602093600196938796938794601f19811610612caa575b505050811b018755612c54565b015160001960f88460031b161c191690558c8080612c9d565b91926020600181928685015181550194019201612c79565b600984016000526020600020908382015b8183018110612cfc575050612ac1565b80612d0960019254614b10565b80612d16575b5001612cec565b601f81118314612d2c5750600081555b89612d0f565b612d4a908260005283601f6020600020920160051c820191016158f2565b60006020812081835555612d26565b600190602084519401938184015501612a8f565b600884016000526020600020908382015b8183018110612d8e575050612a7c565b60008155600101612d7e565b015190508580612a10565b6004830160005260206000209060005b601f1984168110612dfc575060019394959683601f19811610612de3575b505050811b016004820155612a28565b015160001960f88460031b161c19169055858080612dd3565b9091602060018192858b015181550193019101612db5565b015190508580612970565b6002850160005260206000209060005b601f1984168110612e76575060019394959683601f19811610612e5d575b505050811b016002840155612988565b015160001960f88460031b161c19169055858080612e4d565b9091602060018192858b015181550193019101612e2f565b6101975490612860565b60405162461bcd60e51b815260206004820152602a60248201527f496e73756666696369656e74206c6f636b20616d6f756e742073656e7420696e604482015269206d73672e76616c756560b01b6064820152608490fd5b3461067b5760208060031936011261067b576001600160a01b03612f126148aa565b1660005261019e8152604060002090604051808383829554938481520190600052836000209260005b85828210612f52575050506120c39250038361495e565b8554845260019586019588955093019201612f3b565b3461067b57604036600319011261067b57612f816148aa565b612f896148c0565b9060005460ff8160081c161590818092613863575b801561384c575b156137f05760ff198116600117600055816137de575b50612fc461586d565b9260405193612fd285614928565b600385526250525360e81b6020860152612ffc60ff60005460081c16612ff781615892565b615892565b8051906001600160401b038211610a3f57819061301a603654614b10565b601f811161378f575b50602090601f8311600114613705576000926136fa575b50508160011b916000199060031b1c1916176036555b83516001600160401b038111610a3f5761306b603754614b10565b601f81116136ab575b506020601f8211600114613624578192939495600092613619575b50508160011b916000199060031b1c1916176037555b60ff60005460081c16926130b884615892565b6130c184615892565b6130ca84615892565b60ff19609754166097556130dd84615892565b6130e561586d565b6130ee85615892565b613111604051956130fe87614928565b60018752603160f81b6020880152615892565b8051906001600160401b038211610a3f57819061313061012f54614b10565b601f81116135c9575b50602090601f831160011461353d57600092613532575b50508160011b916000199060031b1c19161761012f555b83516001600160401b038111610a3f5761318361013054614b10565b601f81116134d7575b506020601f821160011461344e578192939495600092613443575b50508160011b916000199060031b1c191617610130555b600061012d81905561012e81905561019480546001600160a01b039384166001600160a01b03199182161790915561019580549490931693169290921790553381527fc88390e7e62175be0932452175b6a7222b6b094ab0ef984a5153c620345d8975602052604090205460fb9060ff1615613404575b7f65d7a28e3265b37a6474929f336521b332c1681b933f6cb9f3376673440d862a806000528160205260406000203360005260205260ff60406000205416156133c3575b507f9f2df0fed2c77648de5860a4cc508cd0818c85b8b8a1ab4ceeef8d981c8956a690816000528060205260406000203360005260205260ff6040600020541615613382575b5050604051608081018181106001600160401b03821117610a3f576c2c626f6f6c207072697661746560981b91606091604052604d81527f75696e74323536207465726d49642c6164647265737320636f6e74726163742c60208201527f737472696e67207465726d7355726c2c61646472657373206163636570746f726040820152015261334a57005b61ff0019600054166000557f7f26b83ff96e1f2b6a682f133852f6798a09c465da95921460cefb3847402498602060405160018152a1005b816000526020526040600020336000526020526040600020600160ff1982541617905533903390600080516020615eb4833981519152600080a481806132bf565b80600052816020526040600020336000526020526040600020600160ff1982541617905533903390600080516020615eb4833981519152600080a482613279565b60008052806020526040600020336000526020526040600020600160ff1982541617905533336000600080516020615eb48339815191528180a4613235565b0151905085806131a7565b6101306000527f2f605e086faac1d93117bbfbc18835d434e9405fadc1ca66faf4b864746daf349060005b601f19841681106134bf575060019394959683601f198116106134a6575b505050811b01610130556131be565b015160001960f88460031b161c19169055858080613497565b9091602060018192858b015181550193019101613479565b613522906101306000527f2f605e086faac1d93117bbfbc18835d434e9405fadc1ca66faf4b864746daf34601f840160051c81019160208510613528575b601f0160051c01906158f2565b8561318c565b9091508190613515565b015190508680613150565b925061012f6000527f232da9e50dad2971456a78fb5cd6ff6b75019984d6e918139ce990999420f979906000935b601f19841685106135ae576001945083601f19811610613595575b505050811b0161012f55613167565b015160001960f88460031b161c19169055868080613586565b8181015183556020948501946001909301929091019061356b565b6136139061012f6000527f232da9e50dad2971456a78fb5cd6ff6b75019984d6e918139ce990999420f979601f850160051c8101916020861061352857601f0160051c01906158f2565b87613139565b01519050858061308f565b60376000527f42a7b7dd785cd69714a189dffb3fd7d7174edc9ece837694ce50f7078f7c31ae9060005b601f1984168110613693575060019394959683601f1981161061367a575b505050811b016037556130a5565b015160001960f88460031b161c1916905585808061366c565b9091602060018192858b01518155019301910161364e565b6136f49060376000527f42a7b7dd785cd69714a189dffb3fd7d7174edc9ece837694ce50f7078f7c31ae601f840160051c8101916020851061352857601f0160051c01906158f2565b85613074565b01519050868061303a565b925060366000527f4a11f94e20a93c79f6ec743a1954ec4fc2c08429ae2122118bf234b2185c81b8906000935b601f1984168510613774576001945083601f1981161061375b575b505050811b01603655613050565b015160001960f88460031b161c1916905586808061374d565b81810151835560209485019460019093019290910190613732565b6137d89060366000527f4a11f94e20a93c79f6ec743a1954ec4fc2c08429ae2122118bf234b2185c81b8601f850160051c8101916020861061352857601f0160051c01906158f2565b87613023565b61ffff19166101011760005583612fbb565b60405162461bcd60e51b815260206004820152602e60248201527f496e697469616c697a61626c653a20636f6e747261637420697320616c72656160448201526d191e481a5b9a5d1a585b1a5e995960921b6064820152608490fd5b50303b158015612fa55750600160ff821614612fa5565b50600160ff821610612f9e565b3461067b57602036600319011261067b576108a3600435336153c2565b3461067b57600036600319011261067b576138a6614d27565b60975460ff8116156138e55760ff19166097557f5db9ee0a495bf2e6ff9c91a7834c1ba4fdd244a5e8aa4e537bd38aeae4b073aa6020604051338152a1005b60405162461bcd60e51b815260206004820152601460248201527314185d5cd8589b194e881b9bdd081c185d5cd95960621b6044820152606490fd5b3461067b57604036600319011261067b576024356004356001600160401b038216820361067b576108a391336000526139d961019a91602092808452604060002085600052845261397d60ff60406000205416610bdb81614abc565b3360005280845260406000208560005284526040600020600160ff19825416179055336000528352604060002084600052835260406000209068ffffffffffffffff0082549160081b169068ffffffffffffffff001916179055565b3360005261019b81526139f08260406000206159fb565b81600052610198908181526004604060002001927fd3fd5aa457913e22d82398ec24da316375a85dffb0d201f4c9cd02d20e003e2d60018060a01b0394856040600020541661120c60405192839233918785615c99565b3461067b5760208060031936011261067b577f688b4b80f8059abfb59134901d9d0b80f3d989e0d42ed1d937cbc5ec01a80cdc90600435903360005261019a908181526040600020836000528152613aaa60ff60406000205416610bdb81614abc565b8260005261019891828252612538600260ff600a6040600020015460081c1661106d81614abc565b3461067b57604036600319011261067b57613aeb6148aa565b336000526034602052604060002060018060a01b03821660005260205260406000205460243581018091116105e957610f539133615229565b3461067b57604036600319011261067b576001600160a01b03613b456148aa565b1660005261019a602052604060002060243560005260205260a06040600020805460ff81169160018101546001600160401b03600360028401549301549360405195613b9081614abc565b865260081c166020850152604084015260608301526080820152f35b3461067b57604036600319011261067b57613bc56148c0565b336001600160a01b03821603613be1576108a39060043561504d565b60405162461bcd60e51b815260206004820152602f60248201527f416363657373436f6e74726f6c3a2063616e206f6e6c792072656e6f756e636560448201526e103937b632b9903337b91039b2b63360891b6064820152608490fd5b3461067b57600036600319011261067b576020613c59615775565b604051908152f35b3461067b57604036600319011261067b57600435613c7d6148c0565b8160005260fb602052613c97600160406000200154614f42565b8160005260fb60205260406000209060018060a01b0316908160005260205260ff6040600020541615613cc657005b8160005260fb6020526040600020816000526020526040600020600160ff198254161790553391600080516020615eb4833981519152600080a4005b3461067b57602036600319011261067b576001600160a01b03613d236148aa565b166000526101996020526020604060002054604051908152f35b3461067b57604036600319011261067b57600435613d596148c0565b908060005261019891602083815260018060a01b0392613d8184604060002054161515615a67565b806000528482526003613d9d60ff826040600020015416615aa9565b81600052858352600185819695613dbf83978460406000200154163314615af5565b8160009116925b613ea2575b5050909192936000905b613df0575b8685856000525242600760406000200155600080f35b816000526101a0808652604060002054821015613e9c5784613e168360406000206159e3565b905490861b1c14613e315750613e2b90615a21565b85613dd5565b939495509091826000528386526040600020906040600020549060001982019182116105e957613e676105b192613e7e946159e3565b9054911b1c928460005285885260406000206159e3565b90556000528252613e926040600020615c19565b8190848080613dda565b50613dda565b8460005261019f808752604060002054821015613fac578383613ec98460406000206159e3565b905490881b1c1614613ee55750613edf90615a21565b86613dc6565b90919293948096975060005280875260406000209160406000205490600019938483019283116105e95785613f20613f5d94613f39936159e3565b9054908a1b1c169189600052848b5260406000206159e3565b90919082549060031b9160018060a01b039283811b93849216901b16911916179055565b85600052865260406000209081548015613f96570191613f7d83836159e3565b9091825491871b1b191690555590849392918780613dcb565b634e487b7160e01b600052603160045260246000fd5b50613dcb565b3461067b57602036600319011261067b5760043560005260fb6020526020600160406000200154604051908152f35b3461067b57610f53613ff236614a87565b91613ffe83338361532b565b6150c3565b3461067b5761016036600319011261067b5761401d6148c0565b6044356001600160401b03811161067b5761403c90369060040161497f565b6140446149d5565b9161404d6149e4565b60a4356001600160401b03811161067b5761406c90369060040161497f565b916140756149f3565b9360e4356001600160401b03811161067b57614095903690600401614a19565b9561012435936001600160a01b038516850361067b5761014435956001600160401b038716870361067b57600435600090815261019860205260409020546140e6906001600160a01b031615615989565b81156146fc5761019654905b604051926140ff8461490d565b60008452604051946141108661490d565b6000865260405196614121886148d6565b61101088523360208901526040880152151560608701521515608086015260a085015260c08401524260e0840152426101008401526101208301526101408201528415156101608201526002610180820152600435600052610198602052604060002060018060a01b038251166001600160601b0360a01b8254161781556001810160018060a01b036020840151166001600160601b0360a01b82541617905560408201518051906001600160401b038211610a3f5781906141ea826114286002870154614b10565b602090601f831160011461468a5760009261467f575b50508160011b916000199060031b1c19161760028201555b61423b6003820161148260608501511515829060ff801983541691151516179055565b60a08201518051906001600160401b038211610a3f578190614264826114c66004870154614b10565b602090601f831160011461460d57600092614602575b50508160011b916000199060031b1c19161760048201555b60c0820151600582015560e0820151600682015561010082015160078201556101208201518051906001600160401b038211610a3f57600160401b8211610a3f5760088301548260088501558083106145d5575b5060200160088301600052602060002060005b8381106145c15750505050610140820151805190600160401b8211610a3f576009830154826009850155808310614543575b5060200190600983016000526020600020916000905b8282106144665750505050600a6101809101916143716101608201511515849060ff801983541691151516179055565b015161437c81614abc565b61438581614abc565b61ff0082549160081b169061ff0019161790553360005261019c6020526143b260043560406000206159fb565b60043560009081526101a1602052604090819020610104358155600181018054600290920180546001600160a01b0319166001600160a01b03909616959095179094556001600160e01b03191691901b68010000000000000000600160e01b0316176001600160401b039290921691909117905561442c57005b60005b81518110156108a3576144619060043560005261019f602052611660604060002060018060a01b036116588487615a30565b61442f565b80518051906001600160401b038211610a3f57614487826116b88854614b10565b602090601f83116001146144d35792826001949360209386956000926144c8575b5050600019600383901b1c191690841b1787555b01940191019092614341565b0151905038806144a8565b908660005260206000209160005b601f198516811061452b575083602093600196938796938794601f19811610614512575b505050811b0187556144bc565b015160001960f88460031b161c19169055388080614505565b919260206001819286850151815501940192016144e1565b600984016000526020600020908382015b818301811061456457505061432b565b8061457160019254614b10565b8061457e575b5001614554565b601f811183146145945750600081555b8d614577565b6145b2908260005283601f6020600020920160051c820191016158f2565b6000602081208183555561458e565b6001906020845194019381840155016142f9565b600884016000526020600020908382015b81830181106145f65750506142e6565b600081556001016145e6565b01519050898061427a565b9250600484016000526020600020906000935b601f1984168510614664576001945083601f1981161061464b575b505050811b016004820155614292565b015160001960f88460031b161c1916905589808061463b565b81810151835560209485019460019093019290910190614620565b015190508980614200565b9250600284016000526020600020906000935b601f19841685106146e1576001945083601f198116106146c8575b505050811b016002820155614218565b015160001960f88460031b161c191690558980806146b8565b8181015183556020948501946001909301929091019061469d565b61019754906140f2565b3461067b57600036600319011261067b576020603554604051908152f35b3461067b57600036600319011261067b57602061019754604051908152f35b3461067b57604036600319011261067b57610f5361475f6148aa565b6024359033615229565b3461067b57600036600319011261067b57604051600060365461478b81614b10565b80845290600190818116908115611f0357506001146147b457611ea484611e908186038261495e565b6036600090815292507f4a11f94e20a93c79f6ec743a1954ec4fc2c08429ae2122118bf234b2185c81b85b8284106147f7575050508101602001611e9082611e80565b805460208587018101919091529093019281016147df565b3461067b57602036600319011261067b576004359063ffffffff60e01b821680920361067b57602091637965db0b60e01b8114908115614851575b5015158152f35b6301ffc9a760e01b1490508361484a565b60005b8381106148755750506000910152565b8181015183820152602001614865565b9060209161489e81518092818552858086019101614862565b601f01601f1916010190565b600435906001600160a01b038216820361067b57565b602435906001600160a01b038216820361067b57565b6101a081019081106001600160401b03821117610a3f57604052565b60a081019081106001600160401b03821117610a3f57604052565b602081019081106001600160401b03821117610a3f57604052565b604081019081106001600160401b03821117610a3f57604052565b608081019081106001600160401b03821117610a3f57604052565b90601f801991011681019081106001600160401b03821117610a3f57604052565b81601f8201121561067b578035906001600160401b038211610a3f57604051926149b3601f8401601f19166020018561495e565b8284526020838301011161067b57816000926020809301838601378301015290565b60643590811515820361067b57565b60843590811515820361067b57565b60c43590811515820361067b57565b6001600160401b038111610a3f5760051b60200190565b81601f8201121561067b57803591614a3083614a02565b92614a3e604051948561495e565b808452602092838086019260051b82010192831161067b578301905b828210614a68575050505090565b81356001600160a01b038116810361067b578152908301908301614a5a565b606090600319011261067b576001600160a01b0390600435828116810361067b5791602435908116810361067b579060443590565b60041115614ac657565b634e487b7160e01b600052602160045260246000fd5b90815180825260208080930193019160005b828110614afc575050505090565b835185529381019392810192600101614aee565b90600182811c92168015614b40575b6020831014614b2a57565b634e487b7160e01b600052602260045260246000fd5b91607f1691614b1f565b9060009161012f908154614b5d81614b10565b80835292600191808316908115614bdc5750600114614b7d575b50505050565b90929394506000527f232da9e50dad2971456a78fb5cd6ff6b75019984d6e918139ce990999420f979916000925b848410614bc45750506020925001019038808080614b77565b80546020858501810191909152909301928101614bab565b92505050602093945060ff929192191683830152151560051b01019038808080614b77565b90600091610130908154614c1481614b10565b80835292600191808316908115614bdc5750600114614c335750505050565b90929394506000527f2f605e086faac1d93117bbfbc18835d434e9405fadc1ca66faf4b864746daf34916000925b848410614c7a5750506020925001019038808080614b77565b80546020858501810191909152909301928101614c61565b9060009291805491614ca383614b10565b918282526001938481169081600014614d045750600114614cc45750505050565b90919394506000526020928360002092846000945b838610614cf0575050505001019038808080614b77565b805485870183015294019385908201614cd9565b9294505050602093945060ff191683830152151560051b01019038808080614b77565b3360009081527fc81858b0fc5e8d7d2c7a341b4e13a62a27b51e1da1072bf5f7fee8fdef673e94602090815260408083205490927f65d7a28e3265b37a6474929f336521b332c1681b933f6cb9f3376673440d862a9160ff1615614d8b5750505050565b614d94336154d4565b91845190614da182614943565b60428252848201926060368537825115614f2e5760308453825190600191821015614f2e5790607860218501536041915b818311614ec057505050614e7e576048614e7a938693614e5e93614e4f985198899376020b1b1b2b9b9a1b7b73a3937b61d1030b1b1b7bab73a1604d1b8a860152614e26815180928c603789019101614862565b8401917001034b99036b4b9b9b4b733903937b6329607d1b603784015251809386840190614862565b0103602881018752018561495e565b5192839262461bcd60e51b845260048401526024830190614885565b0390fd5b60648486519062461bcd60e51b825280600483015260248201527f537472696e67733a20686578206c656e67746820696e73756666696369656e746044820152fd5b909192600f81166010811015614f1a576f181899199a1a9b1b9c1cb0b131b232b360811b901a614ef085876154c3565b5360041c928015614f0657600019019190614dd2565b634e487b7160e01b82526011600452602482fd5b634e487b7160e01b83526032600452602483fd5b634e487b7160e01b81526032600452602490fd5b60009080825260209060fb8252604092838120338252835260ff848220541615614f6c5750505050565b614f75336154d4565b91845190614f8282614943565b60428252848201926060368537825115614f2e5760308453825190600191821015614f2e5790607860218501536041915b81831161500757505050614e7e576048614e7a938693614e5e93614e4f985198899376020b1b1b2b9b9a1b7b73a3937b61d1030b1b1b7bab73a1604d1b8a860152614e26815180928c603789019101614862565b909192600f81166010811015614f1a576f181899199a1a9b1b9c1cb0b131b232b360811b901a61503785876154c3565b5360041c928015614f0657600019019190614fb3565b9060009180835260fb602052604083209160018060a01b03169182845260205260ff60408420541661507e57505050565b80835260fb602052604083208284526020526040832060ff1981541690557ff6391f5c32d9c69d2a47ea670b442974b53935d1edc7fd64eb21e047a839171b339380a4565b6001600160a01b039081169182156151d65716918215615185576150e5615945565b600082815260336020526040812054918083106151315760408282600080516020615ed483398151915295876020965260338652038282205586815220818154019055604051908152a3565b60405162461bcd60e51b815260206004820152602660248201527f45524332303a207472616e7366657220616d6f756e7420657863656564732062604482015265616c616e636560d01b6064820152608490fd5b60405162461bcd60e51b815260206004820152602360248201527f45524332303a207472616e7366657220746f20746865207a65726f206164647260448201526265737360e81b6064820152608490fd5b60405162461bcd60e51b815260206004820152602560248201527f45524332303a207472616e736665722066726f6d20746865207a65726f206164604482015264647265737360d81b6064820152608490fd5b6001600160a01b039081169182156152da571691821561528a5760207f8c5be1e5ebec7d5bd14f71427d1e84f3dd0314c0f7b2291e5b200ac8c7c3b925918360005260348252604060002085600052825280604060002055604051908152a3565b60405162461bcd60e51b815260206004820152602260248201527f45524332303a20617070726f766520746f20746865207a65726f206164647265604482015261737360f01b6064820152608490fd5b60405162461bcd60e51b8152602060048201526024808201527f45524332303a20617070726f76652066726f6d20746865207a65726f206164646044820152637265737360e01b6064820152608490fd5b9060018060a01b03808316600052603460205260406000209082166000526020526040600020549260001984036153625750505050565b80841061537d57615374930391615229565b38808080614b77565b60405162461bcd60e51b815260206004820152601d60248201527f45524332303a20696e73756666696369656e7420616c6c6f77616e63650000006044820152606490fd5b6001600160a01b03168015615474576153d9615945565b8060005260336020526040600020549180831061542457602081600080516020615ed483398151915292600095858752603384520360408620558060355403603555604051908152a3565b60405162461bcd60e51b815260206004820152602260248201527f45524332303a206275726e20616d6f756e7420657863656564732062616c616e604482015261636560f01b6064820152608490fd5b60405162461bcd60e51b815260206004820152602160248201527f45524332303a206275726e2066726f6d20746865207a65726f206164647265736044820152607360f81b6064820152608490fd5b908151811015612be8570160200190565b60405190606082018281106001600160401b03821117610a3f57604052602a8252602082016040368237825115612be857603090538151600190811015612be857607860218401536029905b8082116155745750506155305790565b606460405162461bcd60e51b815260206004820152602060248201527f537472696e67733a20686578206c656e67746820696e73756666696369656e746044820152fd5b9091600f811660108110156155cd576f181899199a1a9b1b9c1cb0b131b232b360811b901a6155a384866154c3565b5360041c9180156155b8576000190190615520565b60246000634e487b7160e01b81526011600452fd5b60246000634e487b7160e01b81526032600452fd5b6005811015614ac657806155f35750565b600181036156405760405162461bcd60e51b815260206004820152601860248201527f45434453413a20696e76616c6964207369676e617475726500000000000000006044820152606490fd5b6002810361568d5760405162461bcd60e51b815260206004820152601f60248201527f45434453413a20696e76616c6964207369676e6174757265206c656e677468006044820152606490fd5b60031461569657565b60405162461bcd60e51b815260206004820152602260248201527f45434453413a20696e76616c6964207369676e6174757265202773272076616c604482015261756560f01b6064820152608490fd5b9291907f7fffffffffffffffffffffffffffffff5d576e7357a4501ddfe92f46681b20a083116157695791608094939160ff602094604051948552168484015260408301526060820152600093849182805260015afa1561575c5781516001600160a01b03811615615756579190565b50600190565b50604051903d90823e3d90fd5b50505050600090600390565b61577d6157ea565b61578561583e565b6040519060208201927f8b73c3c69bb8fe3d512ecc4cf759cc79239f7b179b0ffacaa9a75d522b39400f8452604083015260608201524660808201523060a082015260a0815260c081018181106001600160401b03821117610a3f5760405251902090565b6040516157fa81610ae781614b4a565b805190811561580a576020012090565b505061012d5480156158195790565b507fc5d2460186f7233c927e7db2dcc703c0e500b653ca82273b7bfad8045d85a47090565b60405161584e81610ae781614c01565b805190811561585e576020012090565b505061012e5480156158195790565b6040519061587a82614928565b6009825268141c9a5d9854d9585b60ba1b6020830152565b1561589957565b60405162461bcd60e51b815260206004820152602b60248201527f496e697469616c697a61626c653a20636f6e7472616374206973206e6f74206960448201526a6e697469616c697a696e6760a81b6064820152608490fd5b8181106158fd575050565b600081556001016158f2565b9190601f811161591857505050565b615943926000526020600020906020601f840160051c8301931061352857601f0160051c01906158f2565b565b60ff6097541661595157565b60405162461bcd60e51b815260206004820152601060248201526f14185d5cd8589b194e881c185d5cd95960821b6044820152606490fd5b1561599057565b60405162461bcd60e51b815260206004820152602560248201527f5465726d20616c726561647920657869737473207769746820746869732054656044820152641c9b48125160da1b6064820152608490fd5b8054821015612be85760005260206000200190600090565b805490600160401b821015610a3f57816105b1916001615a1d940181556159e3565b9055565b60001981146105e95760010190565b8051821015612be85760209160051b010190565b90815491600160401b831015610a3f5782613f39916001615943950181556159e3565b15615a6e57565b60405162461bcd60e51b815260206004820152601360248201527215195c9b48191bd95cc81b9bdd08195e1a5cdd606a1b6044820152606490fd5b15615ab057565b60405162461bcd60e51b815260206004820152601a60248201527f54686973205465726d204973206e6f7420557064617461626c650000000000006044820152606490fd5b15615afc57565b60405162461bcd60e51b815260206004820152601a60248201527f4f6e6c79205465726d204f776e65722043616e205570646174650000000000006044820152606490fd5b90808214615c1557615b538154614b10565b906001600160401b038211610a3f578190615b7282610e458654614b10565b600090601f8311600114615ba957600092615b9e575b50508160011b916000199060031b1c1916179055565b015490503880615b88565b81526020808220858352818320935090601f1985169083905b828210615bfc575050908460019594939210615be3575b505050811b019055565b015460001960f88460031b161c19169055388080615bd9565b8495819295850154815560018091019601940190615bc2565b5050565b8054908115613f965760001991820191615c3383836159e3565b909182549160031b1b1916905555565b15615c4a57565b60405162461bcd60e51b815260206004820152602160248201527f5465726d20616c7265616479206163636570746564206f722072656a656374656044820152601960fa1b6064820152608490fd5b9290606092615cb8919695968552608060208601526080850190614c92565b6001600160a01b0391821660408501529416910152565b6001600160a01b03168015615d2957615ce6615945565b603554600181018091116105e9576035558060005260336020526040600020600181540190556000600080516020615ed4833981519152602060405160018152a3565b60405162461bcd60e51b815260206004820152601f60248201527f45524332303a206d696e7420746f20746865207a65726f2061646472657373006044820152606490fd5b15615d7557565b60405162461bcd60e51b8152602060048201526024808201527f5465726d206973206e6f7420746f6b656e207370656e64696e672061676772656044820152631b595b9d60e21b6064820152608490fd5b15615dcd57565b60405162461bcd60e51b8152602060048201526016602482015275496e73756666696369656e7420616c6c6f77616e636560501b6044820152606490fd5b15615e1257565b60405162461bcd60e51b815260206004820152601c60248201527f5465726d206973206e6f7420657363726f772061676772656d656e74000000006044820152606490fd5b15615e5e57565b60405162461bcd60e51b815260206004820152602760248201527f596f7520617265206e6f74207468652072656365697069656e74206f662074686044820152666973207465726d60c81b6064820152608490fdfe2f8788117e7eff1d82e926ec794901d17c78024a50270940304540a733656f0dddf252ad1be2c89b69c2b068fc378daa952ba7f163c4a11628f55a4df523b3efa2646970667358221220ca34513a3af416a5355f7700f64dbcc68a6ce86590ad14e53425aaf56989eba064736f6c63430008110033",
  "linkReferences": {},
  "deployedLinkReferences": {}
}